S00C00006C6162362E73726563B3
S11300000C9434000C9446000C9446000C94460066
S11300100C9446000C9446000C9446000C94460044
S11300200C9446000C9446000C9446000C94460034
S11300300C9446000C9446000C9446000C94460024
S11300400C9446000C9446000C945A010C944600FF
S11300500C9446000C9446000C9446000C94460004
S11300600C9446000C94460011241FBECFEFD8E038
S1130070DEBFCDBF21E0A0E0B1E001C01D92A230FF
S1130080B207E1F70E9433010C9491010C94000033
S1130090EF92FF920F939AB19E7F9AB99AB19260B0
S11300A09AB91092C000813029F4E0ECF0E080812C
S11300B0826080831092C100613029F4E1ECF0E0A9
S11300C0808180688083413029F4E1ECF0E0808114
S11300D080648083E1ECF0E080818861808321305A
S11300E029F4E2ECF0E0808180648083023039F10D
S11300F028F4002341F00130A1F04BC0033069F132
S11301000430C9F146C0E2ECF0E080818D7F808349
S113011080818B7F8083E1ECF0E080818B7F808322
S113012045C0E2ECF0E080818260808380818B7F37
S11301308083E1ECF0E080818B7F808337C0E2EC48
S1130140F0E080818D7F8083808184608083E1EC16
S1130150F0E080818B7F808329C0E2ECF0E0808135
S113016082608083808184608083E1ECF0E0808120
S11301708B7F80831BC0E2ECF0E08081826080830F
S1130180808184608083E1ECF0E0808184608083FE
S11301900DC0E2ECF0E080818D7F808380818B7FD5
S11301A08083E1ECF0E080818B7F8083F092C50056
S11301B0E092C4000F91FF90EF9008959091C000D9
S11301C095FFFCCF8093C60008958AE00E94DE006C
S11301D089E40E94DE008EE40E94DE0087E40E942F
S11301E0DE0082E50E94DE0085E40E94DE0083E5F5
S11301F00E94DE0085E40E94DE0080E20E94DE00B0
S113020085E50E94DE008EE40E94DE0080E20E940A
S1130210DE0083E40E94DE0081E40E94DE0082E5C9
S11302200E94DE0081E40E94DE0083E40E94DE007E
S113023084E50E94DE0085E40E94DE0082E50E94DF
S1130240DE008AE00E94DE008AE00E94DE008DE08B
S11302500E94DE0008958FEF84B915B883E087B952
S113026080EF88B908950E942B010F2EFFECEF2E2A
S1130270F12CF02D03E020E040E061E081E00E94F9
S1130280480078940E94E500FFCF8091000190918E
S1130290010185B98091000190910101082E892FF7
S11302A0000C881F990B000C881F991F8370806FA6
S11302B088B908951F920F920FB60F9211242F93AD
S11302C03F934F935F936F937F938F939F93AF93DA
S11302D0BF93EF93FF938091C60090E09093010148
S11302E0809300018091C00085FFFCCF80910001C4
S11302F0909101018093C6000E94E5000E9445018F
S1130300FF91EF91BF91AF919F918F917F916F91E9
S11303105F914F913F912F910F900FBE0F901F90BF
S10903201895F894FFCFCC
S9030000FC
